:100000000EC028C027C026C025C024C023C022C0DF
:1000100021C020C01FC01EC01DC01CC01BC0112499
:100020001FBECFE5D2E0DEBFCDBF10E0A0E6B0E05E
:10003000E8E7F3E002C005900D92A636B107D9F7C4
:1000400020E0A6E6B0E001C01D92AA36B207E1F7B3
:1000500066D090C1D5CFCF93DF93CDB7DEB780E028
:1000600090E060D00000DF91CF91089587B38F605A
:1000700087BB089581E088BB2FE986E891E0215095
:1000800080409040E1F700C0000018BA2FE986E8F0
:1000900091E0215080409040E1F700C0000082E0F4
:1000A00088BB2FE986E891E0215080409040E1F73D
:1000B00000C0000018BA2FE986E891E02150804086
:1000C0009040E1F700C0000084E088BB2FE986E89B
:1000D00091E0215080409040E1F700C0000018BA44
:1000E0002FE986E891E0215080409040E1F700C080
:1000F000000088E088BB2FE986E891E0215080402D
:100100009040E1F700C0000018BA2FE986E891E0BE
:10011000215080409040E1F700C000000895A6DF24
:10012000A9DFFECF0F931F93CF93DF939C0102971C
:1001300010F422E030E0E0916800F091690090E076
:1001400080E0B0E0A0E0309791F4009709F445C05A
:10015000821B930B84309105B8F58A819B816115D0
:10016000710569F1FB0193838283FE0111C0408117
:1001700051810281138142175307F0F04217530750
:1001800099F4109761F012960C93129713961C93A2
:100190003296CF01DF91CF911F910F910895009377
:1001A000680010936900F4CF009719F048175907B9
:1001B00018F4CA01BD01EF01DF01F801C4CF90932B
:1001C000690080936800D1CFFE01E80FF91F2193E9
:1001D0003193029799838883DCCF80916600909158
:1001E0006700892B41F480916200909163009093A5
:1001F0006700809366008091600090916100009795
:1002000041F48DB79EB74091640050916500841B06
:10021000950B40916600509167004817590708F008
:10022000B8CF841B950B8217930708F4B2CFB9019E
:100230006E5F7F4F8617970708F4ABCF640F751F6B
:100240007093670060936600FA0121933193A1CF08
:10025000CF93DF939C010097E9F0FC013297138262
:100260001282C0916800D0916900DE0190E080E0C8
:100270002097A1F480819181280F391F8091660019
:10028000909167008217930709F067C0F0936700A9
:10029000E0936600DF91CF910895DA01AE17BF07B2
:1002A00008F041C012964D915C911397CD01411514
:1002B000510599F7DC011396FC93EE9312974D913B
:1002C0005D91A40FB51FEA17FB0781F420813181EE
:1002D0002E5F3F4F240F351FDC0111963C932E9368
:1002E0002281338113963C932E931297B0E0A0E0C5
:1002F0008A819B810097B1F5FE0181919191E80F70
:10030000F91F80916600909167008E179F0711F684
:10031000109759F51092690010926800D093670009
:10032000C0936600B7CFB383A28340815181240F6D
:10033000351FA217B30771F44E5F5F4F2D913C91AB
:100340001197420F531F5183408312962D913C9178
:1003500033832283009709F0ADCFF0936900E093D7
:10036000680098CFDE01EC01C3CF13961C921E9259
:080370001297D4CFF894FFCFDF
:0603780000006A002000F5
:00000001FF
