:100000000C9462000C948A000C948A000C948A0070
:100010000C948A000C948A000C948A000C948A0038
:100020000C948A000C948A000C948A000C948A0028
:100030000C948A000C948A000C948A000C948A0018
:100040000C942C030C948A000C949C030C9476035F
:100050000C948A000C948A000C948A000C948A00F8
:100060000C948A000C948A000000000024002700F1
:100070002A0000000000250028002B0000000000DE
:1000800023002600290004040404040404040202DA
:100090000202020203030303030301020408102007
:1000A0004080010204081020010204081020000012
:1000B0000008000201000003040700000000000027
:1000C0000000E40411241FBECFEFD8E0DEBFCDBF97
:1000D00011E0A0E0B1E0E6E7FAE002C005900D9281
:1000E000A831B107D9F721E0A8E1B1E001C01D9224
:1000F000AE3BB207E1F710E0C2E6D0E004C02197C2
:10010000FE010E943305C136D107C9F70E94CE0314
:100110000C9439050C940000833081F028F4813070
:1001200099F08230A9F008958730A9F08830C9F09D
:100130008430B1F4809180008F7D03C08091800075
:100140008F7780938000089584B58F7784BD08955C
:1001500084B58F7DFBCF8091B0008F778093B00006
:1001600008958091B0008F7DF9CFCF93DF93282F32
:1001700030E0F901E255FF4F8491F901E656FF4F57
:10018000D491F901EA57FF4FC491CC23A1F081111A
:100190000E948C00EC2FF0E0EE0FFF1FE458FF4FA1
:1001A000A591B491EC91ED2381E090E009F480E019
:1001B000DF91CF91089580E090E0FACF1F93CF9325
:1001C000DF93282F30E0F901E255FF4F8491F901C8
:1001D000E656FF4FD491F901EA57FF4FC491CC2363
:1001E000A9F0162F81110E948C00EC2FF0E0EE0F89
:1001F000FF1FEE58FF4FA591B4918FB7F894EC9183
:10020000111108C0D095DE23DC938FBFDF91CF9111
:100210001F910895DE2BF8CFCF93DF9390E0FC0180
:10022000E656FF4F24918A579F4FFC018491882303
:10023000D1F090E0880F991FFC01E859FF4FA5917C
:10024000B491FC01EE58FF4FC591D49161110EC0DD
:100250009FB7F8948C91E22FE0958E238C932881A0
:10026000E223E8839FBFDF91CF9108958FB7F89481
:10027000EC91E22BEC938FBFF6CF3FB7F8948091CF
:100280001D0190911E01A0911F01B091200126B582
:10029000A89B05C02F3F19F00196A11DB11D3FBFBE
:1002A000BA2FA92F982F8827BC01CD01620F711D8D
:1002B000811D911D42E0660F771F881F991F4A9587
:1002C000D1F708958F929F92AF92BF92CF92DF9213
:1002D000EF92FF920E943D014B015C0184E6C82E23
:1002E000D12CE12CF12C0E943D01681979098A0971
:1002F0009B09683E734081059105A8F321E0C21A6D
:10030000D108E108F10888EE880E83E0981EA11C50
:10031000B11CC114D104E104F10429F7FF90EF905E
:10032000DF90CF90BF90AF909F908F900895AF9245
:10033000BF92CF92DF92EF92FF920F931F93CF93D2
:10034000DF936C017B018B01040F151FEB015E0134
:10035000AE18BF08C017D10759F06991D601ED91C9
:10036000FC910190F081E02DC6010995892B79F768
:10037000C501DF91CF911F910F91FF90EF90DF901A
:10038000CF90BF90AF900895FC01538D448D252FE1
:1003900030E0842F90E0821B930B541710F0CF961F
:1003A000089501970895FC01918D828D981761F051
:1003B000A28DAE0FBF2FB11D5D968C91928D9F5F68
:1003C0009F73928F90E008958FEF9FEF0895FC0147
:1003D000918D828D981731F0828DE80FF11D858DFA
:1003E00090E008958FEF9FEF0895FC01918D228D8D
:1003F000892F90E0805C9F4F821B91098F73992712
:10040000089581E291E00E94F50121E0892B09F431
:1004100020E0822F089580E090E0892B29F00E944F
:10042000010281110C9400000895FC01A48DA80F15
:10043000B92FB11DA35ABF4F2C91848D90E0019626
:100440008F739927848FA689B7892C93A089B18946
:100450008C91837080648C93938D848D981306C0E7
:100460000288F389E02D80818F7D80830895EF924B
:10047000FF920F931F93CF93DF93EC0181E0888F5E
:100480009B8D8C8D98131AC0E889F989808185FF2E
:1004900015C09FB7F894EE89FF896083E889F989D0
:1004A00080818370806480839FBF81E090E0DF91D2
:1004B000CF911F910F91FF90EF900895F62E0B8D25
:1004C00010E00F5F1F4F0F731127E02E8C8D8E11E0
:1004D0000CC00FB607FCFACFE889F989808185FF47
:1004E000F5CFCE010E941502F1CFEB8DEC0FFD2F61
:1004F000F11DE35AFF4FF0829FB7F8940B8FEA8902
:10050000FB8980818062CFCFCF93DF93EC01888D10
:100510008823B9F0AA89BB89E889F9898C9185FD7E
:1005200003C0808186FD0DC00FB607FCF7CF8C910C
:1005300085FFF2CF808185FFEDCFCE010E941502AD
:10054000E9CFDF91CF910895FC0101900020E9F7F8
:100550003197AF01481B590BBC0181E291E00C942B
:1005600097018F929F92AF92BF92CF92DF92EF92BC
:10057000FF920F931F93CF93DF93CDB7DEB7A19771
:100580000FB6F894DEBF0FBECDBF6B017C01F7FE46
:1005900041C06DE281E291E00E9437028C01222786
:1005A0003327A9012C193D094E095F0919A2CE0173
:1005B00081967C019AE0892E912CA12CB12CCA0144
:1005C000B901A50194010E941105605DF7016293D4
:1005D0007F01211531054105510589F790E080E043
:1005E000309719F0CF010E94A402800F911FA196AD
:1005F0000FB6F894DEBF0FBECDBFDF91CF911F9134
:100600000F91FF90EF90DF90CF90BF90AF909F90B1
:100610008F900895AC019B0119A28E010F5D1F4FB1
:100620008AE0C82ED12CE12CF12CCA01B901A70116
:1006300096010E941105605DF80162938F012115FA
:1006400031054105510589F790E080E0309779F256
:10065000CF010E94A402CBCF1F920F920FB60F9230
:1006600011242F933F938F939F93AF93BF938091C8
:10067000190190911A01A0911B01B0911C013091B8
:10068000180123E0230F2D3758F50196A11DB11D48
:10069000209318018093190190931A01A0931B01D4
:1006A000B0931C0180911D0190911E01A0911F012A
:1006B000B09120010196A11DB11D80931D01909361
:1006C0001E01A0931F01B0932001BF91AF919F9194
:1006D0008F913F912F910F900FBE0F901F90189503
:1006E00026E8230F0296A11DB11DD2CF1F920F92B3
:1006F0000FB60F9211242F933F934F935F936F93F5
:100700007F938F939F93AF93BF93EF93FF9381E278
:1007100091E00E941502FF91EF91BF91AF919F91DF
:100720008F917F916F915F914F913F912F910F909A
:100730000FBE0F901F9018951F920F920FB60F9239
:1007400011242F938F939F93EF93FF93E0913101A7
:10075000F09132018081E0913701F091380182FD02
:100760001BC0908180913A018F5F8F7320913B0174
:10077000821741F0E0913A01F0E0EF5DFE4F958F76
:1007800080933A01FF91EF919F918F912F910F905C
:100790000FBE0F901F9018958081F4CF789484B588
:1007A000826084BD84B5816084BD85B5826085BD6D
:1007B00085B5816085BD80916E00816080936E00FB
:1007C00010928100809181008260809381008091ED
:1007D000810081608093810080918000816080939E
:1007E00080008091B10084608093B1008091B0005E
:1007F00081608093B00080917A00846080937A0059
:1008000080917A00826080937A0080917A00816082
:1008100080937A0080917A00806880937A001092A9
:10082000C100C2E060E08C2F0E940C01CF5FC73096
:10083000C9F761E08CE00E940C0161E08BE00E944E
:100840000C0161E08AE00E940C0161E087E00E94F7
:100850000C01E0913101F091320182E08083E0915E
:100860002D01F0912E011082E0912F01F0913001C5
:100870008FEC808310923901E0913501F0913601BF
:1008800086E08083E0913301F091340180818061C2
:100890008083E0913301F09134018081886080830E
:1008A000E0913301F0913401808180688083E09190
:1008B0003301F091340180818F7D808361E08CE091
:1008C0000E94DE000E94620160E08CE00E94DE0077
:1008D0000E94620161E08BE00E94DE000E946201E2
:1008E00060E08BE00E94DE000E94620161E08AE02D
:1008F0000E94DE000E94620160E08AE00E94DE0049
:100900000E94620161E087E00E94DE000E946201B5
:1009100060E087E00E94DE000E94620180E0882E95
:1009200080E0982E86E00E94B5005C0185E00E9480
:10093000B5006C0184E00E94B5007C0183E00E9458
:10094000B5008C0182E00E94B500EC01B501BB0C42
:10095000880B990B0E94B10282E191E00E94A402EF
:10096000B601DD0C880B990B0E94B10282E191E087
:100970000E94A402B701FF0C880B990B0E94B102E0
:1009800082E191E00E94A402B801110F880B990B3B
:100990000E94B10282E191E00E94A402BE01DD0F3B
:1009A000880B990B0E94B10284E191E00E94A4029D
:1009B0008114910409F4B6CF0E940102882309F43E
:1009C000B1CF0E940000AECFE1E2F1E013821282CB
:1009D00088EE93E0A0E0B0E084839583A683B7839C
:1009E00084E091E09183808385EC90E09587848713
:1009F00084EC90E09787868780EC90E0918B808BE9
:100A000081EC90E0938B828B82EC90E0958B848BD1
:100A100086EC90E0978B868B118E128E138E148E3F
:100A20000895A1E21A2EAA1BBB1BFD010DC0AA1F2F
:100A3000BB1FEE1FFF1FA217B307E407F50720F047
:100A4000A21BB30BE40BF50B661F771F881F991FC2
:100A50001A9469F760957095809590959B01AC010B
:100A6000BD01CF010895EE0FFF1F0590F491E02D19
:060A70000994F894FFCF89
:100A76000000000037029701C4018402F501D3018A
:080A8600E70109000D0A000060
:00000001FF
