:100000000EC015C014C013C012C011C010C00FC064
:100010000EC00DC00CC00BC00AC009C008C011241E
:100020001FBECFE5D2E0DEBFCDBF02D028C0E8CFF3
:100030003F9A399A3D9A379A319A309A8FE087BB26
:1000400041E050E024ED30E3369A3699FECF84B19A
:1000500095B1E92FC098C198C298C39860E078B371
:10006000CA01062E01C0880F0A94EAF7782B78BBE4
:100070006F5FE617A0F7C9010197F1F7E5CFF89494
:02008000FFCFB0
:00000001FF
