:100000000EC015C014C013C012C011C010C00FC064
:100010000EC00DC00CC00BC00AC009C008C011241E
:100020001FBECFE5D2E0DEBFCDBF02D015C3E8CF03
:10003000CF93DF93CDB7DEB72A970FB6F894DEBF24
:100040000FBECDBFBC9A24E332E13A87298789E10C
:10005000282E312C89859A8565E078E033D1875E3A
:10006000994C9A87898711E0C49A612F70E080E0EB
:1000700090E0D1D12B013C012BEA3AEA4AEA5EE357
:1000800080D26B017C0120E030E040E85EE3C301F8
:10009000B20177D24B015C0120E030E040E85FE341
:1000A000C701B60120D187FD64C020E03FEF4FE7D4
:1000B00057E4C501B40161D218160CF046C020E027
:1000C00030E04AE754E4C301B20111D16D837E836D
:1000D0008F83988720E030E04AE753E452D2698367
:1000E0007A838B839C8320E030E040E85FE3FBD0A1
:1000F00087FD24C020E03FEF4FE757E469817A8114
:100100008B819C813AD218169CF420E030E040E2CA
:1001100051E46D817E818F81988533D250D16115F4
:10012000710589F0C1010197F1F761507109F7CFAD
:1001300069817A818B819C8142D102C061E070E04B
:10014000CB010197F1F760E015C020E030E04FE708
:1001500053E4C701B60111D218163CF4C501B4012D
:100160002ED1CB010197F1F707C0C701B60127D106
:1001700001C061E06A95F1F7C49820E030E040E802
:100180005FE3C701B601AFD087FD5AC020E03FEF63
:100190004FE757E4C501B401F0D118160CF03CC08C
:1001A00020E030E04AE754E4C301B201A0D04B01A3
:1001B0005C0120E030E04AE753E4E3D16B017C01CD
:1001C00020E030E040E85FE38ED087FD1EC020E0F5
:1001D0003FEF4FE757E4C701B601CFD118168CF4B3
:1001E00020E030E040E251E4C501B401CAD1E7D0DB
:1001F0006115710579F0C1010197F1F7615071093D
:10020000F7CFC701B601DBD002C061E070E0CB01DF
:100210000197F1F760E015C020E030E04FE753E4CC
:10022000C701B601AAD118163CF4C501B401C7D064
:10023000CB010197F1F707C0C701B601C0D001C0DB
:1002400061E06A95F1F7165F193C09F00DCFE98579
:10025000FA85BF0180E090E0DED04B015C0120E038
:1002600030E04AE753E48DD16B017C0120E030E0BF
:1002700040E85FE338D087FD1FC020E03FEF4FE745
:1002800057E4C701B60179D1181694F420E030E0A4
:1002900040E251E4C501B40174D191D061157105FA
:1002A00009F4D8CEC1010197F1F761507109F6CF79
:1002B000C701B60184D002C061E070E0CB010197B4
:1002C000F1F7C8CE0024552704C0080E591F880F27
:1002D000991F009729F076956795B8F37105B9F7DE
:1002E000802D952F0895D4D008F481E008950CD086
:1002F0000AC102D140F0F9D030F021F45F3F19F08B
:10030000EBC0511134C1EEC00FD198F39923C9F35A
:100310005523B1F3951B550BBB27AA27621773070B
:10032000840738F09F5F5F4F220F331F441FAA1FBF
:10033000A9F333D00E2E3AF0E0E830D0915050407F
:10034000E695001CCAF729D0FE2F27D0660F771F2D
:10035000881FBB1F261737074807AB07B0E809F00F
:10036000BB0B802DBF01FF2793585F4F2AF09E3FA4
:10037000510568F0B1C0FBC05F3FECF3983EDCF381
:10038000869577956795B795F7959F5FC9F7880F1D
:10039000911D9695879597F90895E1E0660F771F6F
:1003A000881FBB1F621773078407BA0720F0621B00
:1003B000730B840BBA0BEE1F88F7E0950895BCD041
:1003C00088F09F5790F0B92F9927B751A0F0D1F03E
:1003D000660F771F881F991F1AF0BA95C9F712C0C8
:1003E000B13081F0C3D0B1E00895C0C0672F782F3D
:1003F0008827B85F39F0B93FCCF386957795679534
:10040000B395D9F73EF490958095709561957F4F9F
:100410008F4F9F4F0895E89409C097FB3EF4909545
:100420008095709561957F4F8F4F9F4F9923A9F0CD
:10043000F92F96E9BB279395F6958795779567955C
:10044000B795F111F8CFFAF4BB0F11F460FF1BC0A0
:100450006F5F7F4F8F4F9F4F16C0882311F096E933
:1004600011C0772321F09EE8872F762F05C06623E1
:1004700071F096E8862F70E060E02AF09A95660F9A
:10048000771F881FDAF7880F9695879597F9089553
:10049000990F0008550FAA0BE0E8FEEF1616170695
:1004A000E807F907C0F012161306E407F50798F0FD
:1004B000621B730B840B950B39F40A2661F0232B16
:1004C000242B252B21F408950A2609F4A140A69592
:1004D0008FEF811D811D089597F99F6780E870E077
:1004E00060E008959FEF80EC089500240A941616AA
:1004F000170618060906089500240A941216130612
:10050000140605060895092E0394000C11F488239F
:1005100052F0BB0F40F4BF2B11F460FF04C06F5FBB
:100520007F4F8F4F9F4F089557FD9058440F551F91
:1005300059F05F3F71F04795880F97FB991F61F065
:100540009F3F79F087950895121613061406551FDC
:10055000F2CF4695F1DF08C0161617061806991F48
:10056000F1CF86957105610508940895E894BB273D
:1005700066277727CB0197F908958ADF08F48FEF74
:1005800008950AD0C0CFB1DF28F0B6DF18F0952368
:1005900009F0A2CFA7CFEBCFC7DFA8F39923D9F3F8
:1005A0005523C9F3950F50E0551FAA27EE27FF27C3
:1005B000BB2700240894679520F4E20FF31FB41FB3
:1005C0000A1E220F331F441FAA1F6695A9F77795AD
:1005D00030F4F30FB41F0A1E121E08F46395330F94
:1005E000441FAA1F221F769599F7879520F4B40F10
:1005F0000A1E121E631F440FAA1F221F331F869557
:10060000A9F7862F712D602D11249F5750408AF035
:10061000E1F088234AF0EE0FFF1FBB1F661F771F14
:10062000881F91505040A9F79E3F510570F054CF5C
:100630009ECF5F3FECF3983EDCF386957795679508
:10064000B795F795E7959F5FC1F7FE2B880F911D32
:0C0650009695879597F90895F894FFCFD0
:00000001FF
