:100000000C9434000C9440000C943E000C943E0080
:100010000C943E000C943E000C943E000C943E0068
:100020000C943E000C943E000C943E000C943E0058
:100030000C943E000C943E000C943E000C943E0048
:100040000C943E000C943E000C943E000C943E0038
:100050000C943E000C943E000C943E000C943E0028
:100060000C943E000C943E0011241FBECFEFD8E04C
:10007000DEBFCDBF0E944E000C9461000C940000C6
:100080004A9902C0289A18952898FDCFE89AE9E67F
:10009000F0E0808181608083789408958FEF84B947
:1000A0005A9A0E94460092E02FE936E881E02150FA
:1000B00030408040E1F700C0000085B1892785B954
:0600C000F3CFF894FFCF1E
:00000001FF
