:100000000C943E000C9448000C9448000C9448005A
:100010000C9448000C9448000C9448000C94480040
:100020000C9448000C9448000C9448000C94480030
:100030000C9448000C9448000C9448000C94480020
:100040000C9448000C9448000C9448000C94480010
:100050000C9448000C9448000C9448000C94480000
:100060000C9448000C9448000C9448000C944800F0
:100070000C9448000C9448000C94480011241FBEB6
:10008000CFEFCDBFDFE3DEBF0E944A000C94B50086
:100090000C94000088ED90E084BF9093610084E0B0
:1000A00080932104809325042FE73AE196E02150C4
:1000B00030409040E1F700C0000080932604E7E85C
:1000C000F3E13197F1F700C0000080932504FFE7CA
:1000D0002AE136E0F15020403040E1F700C0000056
:1000E00080932604E7E9FAE33197F1F700C00000B6
:1000F00080932504FFE72AE136E0F15020403040AC
:10010000E1F700C0000080932604E7EBF8E83197A0
:10011000F1F700C0000080932504FFE72AE136E0F4
:10012000F15020403040E1F700C0000080932604E9
:10013000EFE4F3EC3197F1F700C000008093250461
:10014000FFE72AE136E0F15020403040E1F700C0FF
:100150000000809326049FE7EAE1F6E09150E0403A
:0E016000F040E1F700C000009DCFF894FFCF03
:00000001FF
