:100000000C9434000C9449000C9449000C94490061
:100010000C9449000C9449000C9449000C9449003C
:100020000C9449000C9449000C9449000C9449002C
:100030000C9449000C9449000C9449000C9449001C
:100040000C9449000C9449000C9449000C9449000C
:100050000C9449000C9449000C9449000C944900FC
:100060000C9449000C94490011241FBECFEFD8E036
:10007000DEBFCDBF11E0A0E0B1E0E6E3F3E002C0F7
:1000800005900D92A631B107D9F70E945B010C943F
:1000900099010C9400001092C5008CE08093C4007C
:1000A000E0ECF0E080818260808388E18093C10091
:1000B00086E08093C20008959091C00095FFFCCF28
:1000C0008093C60008958091C00087FFFCCF809187
:1000D000C60008951F93CF93DF93EC0110E0FE015B
:1000E000E10FF11D8081811104C0DF91CF911F913B
:1000F00008950E945C001F5FF2CFCF92DF92EF92D3
:10010000FF920F931F93CF93DF937C01D0E0862F54
:100110008150990B8C018D2F90E06701C80ED91E7C
:10012000801791073CF40E946300C82F0E945C0076
:10013000CD3059F4F6011082DF91CF911F910F91CC
:10014000FF90EF90DF90CF900895F601C083DF5FBE
:10015000E2CFCF93C82F64E60E947901805D0E94B0
:100160005C002AE08C2F622F0E947901C92F0E9427
:10017000790180E3890F0E945C0080E38C0FCF91AE
:100180000C945C000F931F93CF93DF93D82FC92F4C
:1001900060E177E20E94850180E3860F0E945C00A7
:1001A0008D2F9C2F68EE73E00E948501CB010AE041
:1001B00010E0B8010E948501805D0E945C008D2FD7
:1001C0009C2F64E670E00E948501CB01B8010E947B
:1001D0008501805D0E945C008D2F9C2FB8010E94DC
:1001E0008501C82FCB01B8010E948501805D0E9466
:1001F0005C0080E38C0FDF91CF911F910F910C94E5
:100200005C000F931F93CF93DF930F92CDB7DEB7B0
:10021000898307E010E0898190E0002E02C0959567
:1002200087950A94E2F780FF0CC081E30E945C008E
:100230000150110980F70F90DF91CF911F910F911D
:10024000089580E3F3CF8A3010F4805D0895895CCF
:100250000895CF93C82F82958F700E9423010E942A
:100260005C008C2F8F700E942301CF910C945C0056
:100270000F931F93CF93DF9300E3D0E310E30E942B
:100280006300C02F082F0E945C000D3089F41053CA
:1002900080ED8C0F94E6199F800D1124D0539AE0C5
:1002A000D99F800D1124DF91CF911F910F91089557
:1002B0001D2FDC2FE4CF8FEF84B90E944B0080E02C
:1002C00091E00E946A008EE091E00E946A0084B191
:1002D0000E9401018BE091E00E946A000E9463008D
:1002E000C82F0E945C008CE091E00E946A00C5B9B2
:1002F000F5CF991B79E004C0991F961708F0961B5B
:10030000881F7A95C9F780950895AA1BBB1B51E1F8
:1003100007C0AA1FBB1FA617B70710F0A61BB70B75
:10032000881F991F5A95A9F780959095BC01CD011A
:060330000895F894FFCFD0
:1003360068656C6C6F20776F726C640D0A004444BC
:060346005242203D0000C0
:00000001FF
