:100000000C9434000C9451000C9451000C94510049
:100010000C9453000C9451000C9451000C9451001A
:100020000C9451000C9451000C9451000C9451000C
:100030000C9451000C9451000C9451000C945100FC
:100040000C9451000C9451000C9451000C945100EC
:100050000C9451000C9451000C9451000C945100DC
:100060000C9451000C94510011241FBECFEFD8E026
:10007000DEBFCDBF11E0A0E0B1E0E8ECF3E002C0EC
:1000800005900D92AC31B107D9F721E0ACE1B1E0B8
:1000900001C01D92AE31B207E1F70E9487010C94B6
:1000A000E2010C9400008F938FB78F939F93809100
:1000B0001C0190911D01019690931D0180931C01DC
:1000C0003B9A82E08A95F1F700C03B98D99A9F91BC
:1000D0008F918FBF8F911895E8E6F0E08081826064
:1000E0008083ECE6F0E08081886080830895109240
:1000F000C50083E38093C400E0ECF0E080818D7F55
:10010000808388E18093C10086E08093C2000895D7
:100110009091C00095FFFCCF8093C6000895809118
:10012000C00087FFFCCF8091C60008951F93CF9336
:10013000DF93EC0110E0FE01E10FF11D80818111E0
:1001400004C0DF91CF911F9108950E9488001F5F26
:10015000F2CFCF92DF92EF92FF920F931F93CF9344
:10016000DF937C01D0E0862F8150990B8C018D2F7D
:1001700090E06701C80ED91E801791073CF40E94D9
:100180008F00C82F0E948800CD3059F4F6011082EC
:10019000DF91CF911F910F91FF90EF90DF90CF9063
:1001A0000895F601C083DF5FE2CFCF93C82F64E6E6
:1001B0000E94C201805D0E9488002AE08C2F622F7D
:1001C0000E94C201C92F0E94C20180E3890F0E94D0
:1001D000880080E38C0FCF910C9488000F931F93BD
:1001E000CF93DF93D82FC92F60E177E20E94CE0131
:1001F00080E3860F0E9488008D2F9C2F68EE73E0AD
:100200000E94CE01CB010AE010E0B8010E94CE01AD
:10021000805D0E9488008D2F9C2F64E670E00E9414
:10022000CE01CB01B8010E94CE01805D0E94880002
:100230008D2F9C2FB8010E94CE01C82FCB01B80191
:100240000E94CE01805D0E94880080E38C0FDF91C8
:10025000CF911F910F910C9488000F931F93CF9310
:10026000DF930F92CDB7DEB7898307E010E0898175
:1002700090E0002E02C0959587950A94E2F780FFE2
:100280000CC081E30E9488000150110980F70F9093
:10029000DF91CF911F910F91089580E3F3CF8A30C2
:1002A00010F4805D0895895C0895CF93C82F8295DE
:1002B0008F700E944F010E9488008C2F8F700E94C7
:1002C0004F01CF910C9488000F931F93CF93DF932E
:1002D00000E3D0E310E30E948F00C02F082F0E949C
:1002E00088000D3089F4105380ED8C0F94E6199F2F
:1002F000800D1124D0539AE0D99F800D1124DF91F5
:10030000CF911F910F9108951D2FDC2FE4CF80E82E
:1003100030E020E00FB6F8948093610020936100F4
:100320000FBE0E94770080E091E00E9496008FEF60
:1003300084B985B7806185BF439A0E946C00CFEF76
:1003400010921D0110921C013B9A78948FE39CE956
:100350000197F1F700C00000F89480911C01909182
:100360001D018C389A4060F4C5B980911C019091B0
:100370001D010E94EE0088E191E00E949600E0CF0E
:1003800015B8F3CF991B79E004C0991F961708F0B0
:10039000961B881F7A95C9F780950895AA1BBB1BE9
:1003A00051E107C0AA1FBB1FA617B70710F0A61B75
:1003B000B70B881F991F5A95A9F780959095BC0196
:0803C000CD010895F894FFCF70
:1003C8002D2D2D2D2D2D4341505F53454E534F520A
:0C03D8002D2D2D2D2D2D0D0A0D0A0000DD
:00000001FF
