:100000000C9434000C943E000C943E000C943E0082
:100010000C943E000C943E000C943E000C943E0068
:100020000C943E000C943E000C943E000C943E0058
:100030000C943E000C943E000C943E000C943E0048
:100040000C943E000C943E000C943E000C943E0038
:100050000C943E000C943E000C943E000C943E0028
:100060000C943E000C943E0011241FBECFEFD8E04C
:10007000DEBFCDBF0E944E000C945E000C940000C9
:1000800030990AC089EF90E00197F1F700C00000B5
:1000900086B180958170089580E00895409A209AF5
:1000A000D1E00E944000882339F08C2FC11104C098
:1000B00085B18D2785B981E0C82FF3CFF894FFCFA4
:00000001FF
