:100000000EC015C014C013C012C011C010C00FC064
:100010000EC00DC00CC00BC00AC009C008C011241E
:100020001FBECFE5D2E0DEBFCDBF02D02CC0E8CFEF
:100030008FEF87BB40E081E090E0453088F458B313
:100040009C01042E01C0220F0A94EAF7522B58BBE0
:10005000EFE4F3EC3197F1F700C000004F5FEDCF14
:1000600058B39C01042E01C0220F0A94EAF7209590
:10007000252328BBEFE4F3EC3197F1F700C0000033
:0A008000415071F7DCCFF894FFCF78
:00000001FF
