:100000000C9434000C943E000C943E000C943E0082
:100010000C943E000C943E000C943E000C943E0068
:100020000C943E000C943E000C943E000C943E0058
:100030000C943E000C943E000C943E000C943E0048
:100040000C943E000C943E000C943E000C943E0038
:100050000C943E000C943E000C943E000C943E0028
:100060000C943E000C943E0011241FBECFEFD8E04C
:10007000DEBFCDBF0E9455000C9470000C940000B0
:1000800085B92FEF83EC99E0215080409040E1F753
:1000900000C0000015B82FEF83EC99E0215080409C
:1000A0009040E1F700C0000008958FEF84B981E02F
:1000B0000E94400082E00E94400084E00E944000D4
:1000C00088E00E94400080E10E94400080E20E949F
:1000D000400080E40E94400080E80E944000E7CF9A
:0400E000F894FFCFC2
:00000001FF
