:100000000EC028C027C026C025C024C023C022C0DF
:1000100021C020C01FC01EC01DC01CC01BC0112499
:100020001FBECFE5D2E0DEBFCDBF10E0A0E6B0E05E
:10003000E4E7F1E002C005900D92AE36B107D9F7C2
:1000400020E0AEE6B0E001C01D92A137B207E1F7B3
:100050005AD08EC0D5CF20916F003091700081E0D2
:10006000232B09F080E0089520916F0030917000FB
:10007000232BD1F721E030E03093700020936F0004
:10008000982F990F9A7A86958575982B892F880FC6
:10009000880F8C7C969596959373892B8295809387
:1000A0006E0082E08ABD83BF8CB581608CBD84E325
:1000B00089BD12BE80916E0086958FB984E58DB999
:1000C000B99A88E48EB9089580916F00909170007C
:1000D000019781F482E090E09093700080936F002C
:1000E00080916E008795882787958F678FB98EE4FA
:1000F0008EB90895C19AB99A1DB8769A1092700077
:1001000010926F000895CF93DF93CDB7DEB72D9790
:100110000FB6F894DEBF0FBECDBFB99AC19A8DE07D
:10012000D82E7E012DE0E20EF11CE0E6F0E0DE01CB
:1001300011968D2D01900D928A95E1F78E010F5F3A
:100140001F4F80916F0090917000892BD1F7F801BB
:1001500081918F0189DF0E151F0599F7FFE32DE0CF
:1001600083E0F15020408040E1F700C00000DDCF87
:04017000F894FFCF31
:0E0174005553492053657269616C0D0A0000F5
:00000001FF
