:100000000C9434000C943E000C943E000C943E0082
:100010000C943E000C943E000C943E000C943E0068
:100020000C943E000C943E000C943E000C943E0058
:100030000C943E000C943E000C943E000C943E0048
:100040000C943E000C943E000C943E000C943E0038
:100050000C943E000C943E000C943E000C943E0028
:100060000C943E000C943E0011241FBECFEFD8E04C
:10007000DEBFCDBF0E944F000C946A000C940000BC
:1000800085B98FE493EC0197F1F700C0000015B833
:100090008FE493EC0197F1F700C0000008958FEF13
:1000A00084B981E00E94400082E00E94400084E028
:1000B0000E94400088E00E94400080E10E944000D1
:1000C00080E20E94400080E40E94400080E80E949C
:0800D0004000E7CFF894FFCFD8
:00000001FF
