:100000000EC015C014C013C012C011C010C00FC064
:100010000EC00DC00CC00BC00AC009C008C011241E
:100020001FBECFE5D2E0DEBFCDBF02D073C0E8CFA8
:100030008FEF87BB40E081E090E0453088F458B313
:100040009C01042E01C0220F0A94EAF7522B58BBE0
:10005000E1E0F3E53197F1F700C000004F5FEDCF2D
:1000600020E030E068B3AC01022E01C0440F0A94D6
:10007000EAF74095462348BBE1E0F3E53197F1F715
:1000800000C000002F5F3F4F2530310559F7F7E0E2
:100090002CE431E0F15020403040E1F700C0000096
:1000A00044E058B39C01042E01C0220F0A94EAF7E1
:1000B000522B58BBE1E0F3E53197F1F700C00000A7
:1000C000415078F744E058B39C01042E01C0220F40
:1000D0000A94EAF72095252328BBE1E0F3E5319760
:1000E000F1F700C00000415070F7F7E02CE431E078
:1000F000F15020403040E1F700C0000018BA47E05E
:10010000ECE4F1E04150E040F040E1F700C00000D5
:0801100040E095CFF894FFCF09
:00000001FF
