:100000000C943E000C9448000C9448000C9448005A
:100010000C9448000C9448000C9448000C94480040
:100020000C9448000C9448000C9448000C94480030
:100030000C9448000C9448000C9448000C94480020
:100040000C9448000C9448000C9448000C94480010
:100050000C9448000C9448000C9448000C94480000
:100060000C9448000C9448000C9448000C944800F0
:100070000C9448000C9448000C94480011241FBEB6
:10008000CFEFCDBFDFE3DEBF0E944A000C946600D5
:100090000C94000088ED90E084BF9093610082E0B2
:1000A0008093210480932504EFE4F3EC3197F1F77A
:1000B00000C0000080932604FFEF28E03DE3F150EC
:1000C00020403040E1F700C00000ECCFF894FFCFB3
:00000001FF
