:100000000C943E000C9448000C9448000C9448005A
:100010000C9448000C9448000C9448000C94480040
:100020000C9448000C9448000C9448000C94480030
:100030000C9448000C9448000C9448000C94480020
:100040000C9448000C9448000C9448000C94480010
:100050000C9448000C9448000C9448000C94480000
:100060000C9448000C9448000C9448000C944800F0
:100070000C9448000C9448000C94480011241FBEB6
:10008000CFEFCDBFDFE3DEBF0E944A000C947600C5
:100090000C94000088ED90E084BF9093610084E0B0
:1000A0008093210444E081E090E04093250428EC13
:1000B00030E0E7E8F3E13197F1F700C000002150AC
:1000C0003109B9F74093260430E020E0E7E8F3E196
:1000D0003197F1F700C000002F5F3F4F2817390715
:1000E000ACF30596893C910501F7DDCFF894FFCF7D
:00000001FF
