:100000000EC015C014C013C012C011C010C00FC064
:100010000EC00DC00CC00BC00AC009C008C011241E
:100020001FBECFE5D2E0DEBFCDBF0AD06BC0E8CFA8
:1000300088BB87EE93E00197F1F700C000000895B8
:100040008FEF87BB34E02AE081E19FE138BBE7EE28
:10005000F3E03197F1F700C0000038BBE7EEF3E0C2
:100060003197F1F700C0000028BBE7EEF3E03197CD
:10007000F1F700C0000028BBE7EEF3E03197F1F79D
:1000800000C0000088BBE7EEF3E03197F1F700C055
:10009000000088BBE7EEF3E03197F1F700C0000005
:1000A00098BBE7EEF3E03197F1F700C0000098BB92
:1000B000E7EEF3E03197F1F700C0000088BBE7EE10
:1000C000F3E03197F1F700C0000088BBE7EEF3E002
:1000D0003197F1F700C0000088BBE7EEF3E03197FD
:1000E000F1F700C0000088BBE7EEF3E03197F1F7CD
:1000F00000C0000018BAE7E8F3E13197F1F700C05B
:080100000000A4CFF894FFCF2A
:00000001FF
