:100000000C9434000C943E000C943E000C943E0082
:100010000C943E000C943E000C943E000C943E0068
:100020000C943E000C943E000C943E000C943E0058
:100030000C943E000C943E000C943E000C943E0048
:100040000C943E000C943E000C943E000C943E0038
:100050000C943E000C943E000C943E000C943E0028
:100060000C943E000C943E0011241FBECFEFD8E04C
:10007000DEBFCDBF0E9450010C9495010C9400008E
:100080001092C5008CE08093C400E0ECF0E0808129
:100090008260808388E18093C10086E08093C20003
:1000A00008959091C00095FFFCCF8093C6000895FD
:1000B0008091C00087FFFCCF8091C60008951F93F8
:1000C000CF93DF93EC0110E0FE01E10FF11D808181
:1000D000811104C0DF91CF911F9108950E945100BA
:1000E0001F5FF2CFCF92DF92EF92FF920F931F9399
:1000F000CF93DF937C01D0E0862F8150990B8C0148
:100100008D2F90E06701C80ED91E801791073CF42F
:100110000E945800C82F0E945100CD3059F4F601BA
:100120001082DF91CF911F910F91FF90EF90DF90A0
:10013000CF900895F601C083DF5FE2CFCF93C82F41
:1001400064E60E947501805D0E9451002AE08C2FB8
:10015000622F0E947501C92F0E94750180E3890FEB
:100160000E94510080E38C0FCF910C9451000F93AB
:100170001F93CF93DF93D82FC92F60E177E20E94BE
:10018000810180E3860F0E9451008D2F9C2F68EE25
:1001900073E00E948101CB010AE010E0B8010E94E7
:1001A0008101805D0E9451008D2F9C2F64E670E0DC
:1001B0000E948101CB01B8010E948101805D0E94F3
:1001C00051008D2F9C2FB8010E948101C82FCB01B7
:1001D000B8010E948101805D0E94510080E38C0F74
:1001E000DF91CF911F910F910C9451000F931F93AA
:1001F000CF93DF930F92CDB7DEB7898307E010E08E
:10020000898190E0002E02C0959587950A94E2F7C7
:1002100080FF0CC081E30E9451000150110980F75A
:100220000F90DF91CF911F910F91089580E3F3CF4D
:100230008A3010F4805D0895895C0895CF93C82FAB
:1002400082958F700E9418010E9451008C2F8F7030
:100250000E941801CF910C9451000F931F93CF93DC
:10026000DF9300E3D0E310E30E945800C02F082F73
:100270000E9451000D3089F4105380ED8C0F94E6EC
:10028000199F800D1124D0539AE0D99F800D11241D
:10029000DF91CF911F910F9108951D2FDC2FE4CF97
:1002A000409A81E084B985B92FE38DE093E0215035
:1002B00080409040E1F700C0000028980E94400074
:1002C0008FE40E945100C1E03099FECF88E50E9482
:1002D0005100C5B92FE38DE093E02150804090405C
:1002E000E1F700C000002898EFCF991B79E004C027
:1002F000991F961708F0961B881F7A95C9F7809565
:100300000895AA1BBB1B51E107C0AA1FBB1FA6175C
:10031000B70710F0A61BB70B881F991F5A95A9F7AE
:0E03200080959095BC01CD010895F894FFCF13
:00000001FF
