:100000000EC015C014C013C012C011C010C00FC064
:100010000EC00DC00CC00BC00AC009C008C011241E
:100020001FBECFE5D2E0DEBFCDBF02D0C4C1E8CF56
:100030003E9A86B1836086B9379A82E087BBC9E170
:10004000D0E0369A65B1C19A70E080E090E092D03D
:100050004B015C0120E030E04AE753E419D16B0129
:100060007C0120E030E040E85FE354D087FD1EC013
:1000700020E03FEF4FE757E4C701B60105D118165E
:100080008CF420E030E040E251E4C501B40100D13D
:1000900045D06115710579F0CE010197F1F76150F6
:1000A0007109F7CFC701B60139D002C061E070E035
:1000B000CB010197F1F7C19820E030E040E85FE321
:1000C000C701B60127D087FD1FC020E03FEF4FE7F3
:1000D00057E4C701B601D8D0181694F420E030E0F8
:1000E00040E251E4C501B401D3D018D061157105C7
:1000F00009F4A7CFCE010197F1F761507109F6CF4E
:10010000C701B6010BD002C061E070E0CB010197DE
:10011000F1F797CF6CD008F481E0089594D088F07F
:100120009F5790F0B92F9927B751A0F0D1F0660FE3
:10013000771F881F991F1AF0BA95C9F712C0B130FE
:1001400081F09BD0B1E0089598C0672F782F882761
:10015000B85F39F0B93FCCF3869577956795B3953D
:10016000D9F73EF490958095709561957F4F8F4FAC
:100170009F4F0895E89409C097FB3EF490958095B1
:10018000709561957F4F8F4F9F4F9923A9F0F92F5D
:1001900096E9BB279395F695879577956795B795DB
:1001A000F111F8CFFAF4BB0F11F460FF1BC06F5FC1
:1001B0007F4F8F4F9F4F16C0882311F096E911C0D3
:1001C000772321F09EE8872F762F05C0662371F0F4
:1001D00096E8862F70E060E02AF09A95660F771F08
:1001E000881FDAF7880F9695879597F90895990FE4
:1001F0000008550FAA0BE0E8FEEF16161706E807F1
:10020000F907C0F012161306E407F50798F0621B11
:10021000730B840B950B39F40A2661F0232B242BE6
:10022000252B21F408950A2609F4A140A6958FEF05
:10023000811D811D089557FD9058440F551F59F099
:100240005F3F71F04795880F97FB991F61F09F3FC3
:1002500079F087950895121613061406551FF2CFEC
:100260004695F1DF08C0161617061806991FF1CF3C
:1002700086957105610508940895E894BB27662763
:100280007727CB0197F90895B2DF08F48FEF08952F
:100290000AD080C071D028F076D018F0952309F0EC
:1002A00062C067C0EBCFC7DFA8F39923D9F355230A
:1002B000C9F3950F50E0551FAA27EE27FF27BB274C
:1002C00000240894679520F4E20FF31FB41F0A1E60
:1002D000220F331F441FAA1F6695A9F7779530F4A4
:1002E000F30FB41F0A1E121E08F46395330F441F48
:1002F000AA1F221F769599F7879520F4B40F0A1E3E
:10030000121E631F440FAA1F221F331F8695A9F7D1
:10031000862F712D602D11249F5750408AF0E1F0F7
:1003200088234AF0EE0FFF1FBB1F661F771F881F31
:1003300091505040A9F79E3F510570F014C09ECFD8
:100340005F3FECF3983EDCF3869577956795B7951C
:10035000F795E7959F5FC1F7FE2B880F911D969546
:10036000879597F9089597F99F6780E870E060E0B6
:1003700008959FEF80EC089500240A94161617063E
:1003800018060906089500240A9412161306140686
:1003900005060895092E0394000C11F4882352F0E9
:1003A000BB0F40F4BF2B11F460FF04C06F5F7F4FA1
:0A03B0008F4F9F4F0895F894FFCF80
:00000001FF
